{
  "contractName": "ToyoGovernanceToken",
  "abi": [
    {
      "anonymous": false,
      "inputs": [
        {
          "indexed": true,
          "internalType": "address",
          "name": "owner",
          "type": "address"
        },
        {
          "indexed": true,
          "internalType": "address",
          "name": "spender",
          "type": "address"
        },
        {
          "indexed": false,
          "internalType": "uint256",
          "name": "value",
          "type": "uint256"
        }
      ],
      "name": "Approval",
      "type": "event"
    },
    {
      "anonymous": false,
      "inputs": [
        {
          "indexed": true,
          "internalType": "address",
          "name": "previousOwner",
          "type": "address"
        },
        {
          "indexed": true,
          "internalType": "address",
          "name": "newOwner",
          "type": "address"
        }
      ],
      "name": "OwnershipTransferred",
      "type": "event"
    },
    {
      "anonymous": false,
      "inputs": [
        {
          "indexed": false,
          "internalType": "address",
          "name": "account",
          "type": "address"
        }
      ],
      "name": "Paused",
      "type": "event"
    },
    {
      "anonymous": false,
      "inputs": [
        {
          "indexed": true,
          "internalType": "bytes32",
          "name": "role",
          "type": "bytes32"
        },
        {
          "indexed": true,
          "internalType": "bytes32",
          "name": "previousAdminRole",
          "type": "bytes32"
        },
        {
          "indexed": true,
          "internalType": "bytes32",
          "name": "newAdminRole",
          "type": "bytes32"
        }
      ],
      "name": "RoleAdminChanged",
      "type": "event"
    },
    {
      "anonymous": false,
      "inputs": [
        {
          "indexed": true,
          "internalType": "bytes32",
          "name": "role",
          "type": "bytes32"
        },
        {
          "indexed": true,
          "internalType": "address",
          "name": "account",
          "type": "address"
        },
        {
          "indexed": true,
          "internalType": "address",
          "name": "sender",
          "type": "address"
        }
      ],
      "name": "RoleGranted",
      "type": "event"
    },
    {
      "anonymous": false,
      "inputs": [
        {
          "indexed": true,
          "internalType": "bytes32",
          "name": "role",
          "type": "bytes32"
        },
        {
          "indexed": true,
          "internalType": "address",
          "name": "account",
          "type": "address"
        },
        {
          "indexed": true,
          "internalType": "address",
          "name": "sender",
          "type": "address"
        }
      ],
      "name": "RoleRevoked",
      "type": "event"
    },
    {
      "anonymous": false,
      "inputs": [
        {
          "indexed": true,
          "internalType": "address",
          "name": "from",
          "type": "address"
        },
        {
          "indexed": true,
          "internalType": "address",
          "name": "to",
          "type": "address"
        },
        {
          "indexed": false,
          "internalType": "uint256",
          "name": "value",
          "type": "uint256"
        }
      ],
      "name": "Transfer",
      "type": "event"
    },
    {
      "anonymous": false,
      "inputs": [
        {
          "indexed": false,
          "internalType": "address",
          "name": "account",
          "type": "address"
        }
      ],
      "name": "Unpaused",
      "type": "event"
    },
    {
      "inputs": [],
      "name": "DEFAULT_ADMIN_ROLE",
      "outputs": [
        {
          "internalType": "bytes32",
          "name": "",
          "type": "bytes32"
        }
      ],
      "stateMutability": "view",
      "type": "function"
    },
    {
      "inputs": [],
      "name": "MINTER_ROLE",
      "outputs": [
        {
          "internalType": "bytes32",
          "name": "",
          "type": "bytes32"
        }
      ],
      "stateMutability": "view",
      "type": "function"
    },
    {
      "inputs": [],
      "name": "PAUSER_ROLE",
      "outputs": [
        {
          "internalType": "bytes32",
          "name": "",
          "type": "bytes32"
        }
      ],
      "stateMutability": "view",
      "type": "function"
    },
    {
      "inputs": [
        {
          "internalType": "address",
          "name": "owner",
          "type": "address"
        },
        {
          "internalType": "address",
          "name": "spender",
          "type": "address"
        }
      ],
      "name": "allowance",
      "outputs": [
        {
          "internalType": "uint256",
          "name": "",
          "type": "uint256"
        }
      ],
      "stateMutability": "view",
      "type": "function"
    },
    {
      "inputs": [
        {
          "internalType": "address",
          "name": "spender",
          "type": "address"
        },
        {
          "internalType": "uint256",
          "name": "amount",
          "type": "uint256"
        }
      ],
      "name": "approve",
      "outputs": [
        {
          "internalType": "bool",
          "name": "",
          "type": "bool"
        }
      ],
      "stateMutability": "nonpayable",
      "type": "function"
    },
    {
      "inputs": [
        {
          "internalType": "address",
          "name": "account",
          "type": "address"
        }
      ],
      "name": "balanceOf",
      "outputs": [
        {
          "internalType": "uint256",
          "name": "",
          "type": "uint256"
        }
      ],
      "stateMutability": "view",
      "type": "function"
    },
    {
      "inputs": [
        {
          "internalType": "uint256",
          "name": "amount",
          "type": "uint256"
        }
      ],
      "name": "burn",
      "outputs": [],
      "stateMutability": "nonpayable",
      "type": "function"
    },
    {
      "inputs": [
        {
          "internalType": "address",
          "name": "account",
          "type": "address"
        },
        {
          "internalType": "uint256",
          "name": "amount",
          "type": "uint256"
        }
      ],
      "name": "burnFrom",
      "outputs": [],
      "stateMutability": "nonpayable",
      "type": "function"
    },
    {
      "inputs": [],
      "name": "decimals",
      "outputs": [
        {
          "internalType": "uint8",
          "name": "",
          "type": "uint8"
        }
      ],
      "stateMutability": "view",
      "type": "function"
    },
    {
      "inputs": [
        {
          "internalType": "address",
          "name": "spender",
          "type": "address"
        },
        {
          "internalType": "uint256",
          "name": "subtractedValue",
          "type": "uint256"
        }
      ],
      "name": "decreaseAllowance",
      "outputs": [
        {
          "internalType": "bool",
          "name": "",
          "type": "bool"
        }
      ],
      "stateMutability": "nonpayable",
      "type": "function"
    },
    {
      "inputs": [
        {
          "internalType": "bytes32",
          "name": "role",
          "type": "bytes32"
        }
      ],
      "name": "getRoleAdmin",
      "outputs": [
        {
          "internalType": "bytes32",
          "name": "",
          "type": "bytes32"
        }
      ],
      "stateMutability": "view",
      "type": "function"
    },
    {
      "inputs": [
        {
          "internalType": "bytes32",
          "name": "role",
          "type": "bytes32"
        },
        {
          "internalType": "uint256",
          "name": "index",
          "type": "uint256"
        }
      ],
      "name": "getRoleMember",
      "outputs": [
        {
          "internalType": "address",
          "name": "",
          "type": "address"
        }
      ],
      "stateMutability": "view",
      "type": "function"
    },
    {
      "inputs": [
        {
          "internalType": "bytes32",
          "name": "role",
          "type": "bytes32"
        }
      ],
      "name": "getRoleMemberCount",
      "outputs": [
        {
          "internalType": "uint256",
          "name": "",
          "type": "uint256"
        }
      ],
      "stateMutability": "view",
      "type": "function"
    },
    {
      "inputs": [
        {
          "internalType": "bytes32",
          "name": "role",
          "type": "bytes32"
        },
        {
          "internalType": "address",
          "name": "account",
          "type": "address"
        }
      ],
      "name": "grantRole",
      "outputs": [],
      "stateMutability": "nonpayable",
      "type": "function"
    },
    {
      "inputs": [
        {
          "internalType": "bytes32",
          "name": "role",
          "type": "bytes32"
        },
        {
          "internalType": "address",
          "name": "account",
          "type": "address"
        }
      ],
      "name": "hasRole",
      "outputs": [
        {
          "internalType": "bool",
          "name": "",
          "type": "bool"
        }
      ],
      "stateMutability": "view",
      "type": "function"
    },
    {
      "inputs": [
        {
          "internalType": "address",
          "name": "spender",
          "type": "address"
        },
        {
          "internalType": "uint256",
          "name": "addedValue",
          "type": "uint256"
        }
      ],
      "name": "increaseAllowance",
      "outputs": [
        {
          "internalType": "bool",
          "name": "",
          "type": "bool"
        }
      ],
      "stateMutability": "nonpayable",
      "type": "function"
    },
    {
      "inputs": [],
      "name": "name",
      "outputs": [
        {
          "internalType": "string",
          "name": "",
          "type": "string"
        }
      ],
      "stateMutability": "view",
      "type": "function"
    },
    {
      "inputs": [],
      "name": "owner",
      "outputs": [
        {
          "internalType": "address",
          "name": "",
          "type": "address"
        }
      ],
      "stateMutability": "view",
      "type": "function"
    },
    {
      "inputs": [],
      "name": "pause",
      "outputs": [],
      "stateMutability": "nonpayable",
      "type": "function"
    },
    {
      "inputs": [],
      "name": "paused",
      "outputs": [
        {
          "internalType": "bool",
          "name": "",
          "type": "bool"
        }
      ],
      "stateMutability": "view",
      "type": "function"
    },
    {
      "inputs": [],
      "name": "renounceOwnership",
      "outputs": [],
      "stateMutability": "nonpayable",
      "type": "function"
    },
    {
      "inputs": [
        {
          "internalType": "bytes32",
          "name": "role",
          "type": "bytes32"
        },
        {
          "internalType": "address",
          "name": "account",
          "type": "address"
        }
      ],
      "name": "renounceRole",
      "outputs": [],
      "stateMutability": "nonpayable",
      "type": "function"
    },
    {
      "inputs": [
        {
          "internalType": "bytes32",
          "name": "role",
          "type": "bytes32"
        },
        {
          "internalType": "address",
          "name": "account",
          "type": "address"
        }
      ],
      "name": "revokeRole",
      "outputs": [],
      "stateMutability": "nonpayable",
      "type": "function"
    },
    {
      "inputs": [
        {
          "internalType": "bytes4",
          "name": "interfaceId",
          "type": "bytes4"
        }
      ],
      "name": "supportsInterface",
      "outputs": [
        {
          "internalType": "bool",
          "name": "",
          "type": "bool"
        }
      ],
      "stateMutability": "view",
      "type": "function"
    },
    {
      "inputs": [],
      "name": "symbol",
      "outputs": [
        {
          "internalType": "string",
          "name": "",
          "type": "string"
        }
      ],
      "stateMutability": "view",
      "type": "function"
    },
    {
      "inputs": [],
      "name": "totalSupply",
      "outputs": [
        {
          "internalType": "uint256",
          "name": "",
          "type": "uint256"
        }
      ],
      "stateMutability": "view",
      "type": "function"
    },
    {
      "inputs": [
        {
          "internalType": "address",
          "name": "to",
          "type": "address"
        },
        {
          "internalType": "uint256",
          "name": "amount",
          "type": "uint256"
        }
      ],
      "name": "transfer",
      "outputs": [
        {
          "internalType": "bool",
          "name": "",
          "type": "bool"
        }
      ],
      "stateMutability": "nonpayable",
      "type": "function"
    },
    {
      "inputs": [
        {
          "internalType": "address",
          "name": "from",
          "type": "address"
        },
        {
          "internalType": "address",
          "name": "to",
          "type": "address"
        },
        {
          "internalType": "uint256",
          "name": "amount",
          "type": "uint256"
        }
      ],
      "name": "transferFrom",
      "outputs": [
        {
          "internalType": "bool",
          "name": "",
          "type": "bool"
        }
      ],
      "stateMutability": "nonpayable",
      "type": "function"
    },
    {
      "inputs": [
        {
          "internalType": "address",
          "name": "newOwner",
          "type": "address"
        }
      ],
      "name": "transferOwnership",
      "outputs": [],
      "stateMutability": "nonpayable",
      "type": "function"
    },
    {
      "inputs": [],
      "name": "unpause",
      "outputs": [],
      "stateMutability": "nonpayable",
      "type": "function"
    },
    {
      "inputs": [
        {
          "internalType": "string",
          "name": "_name",
          "type": "string"
        },
        {
          "internalType": "string",
          "name": "_symbol",
          "type": "string"
        }
      ],
      "name": "initialize",
      "outputs": [],
      "stateMutability": "nonpayable",
      "type": "function"
    },
    {
      "inputs": [
        {
          "internalType": "address",
          "name": "to",
          "type": "address"
        },
        {
          "internalType": "uint256",
          "name": "amount",
          "type": "uint256"
        }
      ],
      "name": "mint",
      "outputs": [],
      "stateMutability": "nonpayable",
      "type": "function"
    }
  ],
  "bytecode": "0x608060405234801561001057600080fd5b5061200e806100206000396000f3fe608060405234801561001057600080fd5b50600436106101835760e060020a600035046301ffc9a7811461018857806306fdde03146101b0578063095ea7b3146101c557806318160ddd146101d857806323b872dd146101ea578063248a9ca3146101fd5780632f2ff15d14610210578063313ce5671461022557806336568abe1461023457806339509351146102475780633f4ba83a1461025a57806340c10f191461026257806342966c68146102755780634cd88b76146102885780635c975abb1461029b57806370a08231146102a7578063715018a6146102d057806379cc6790146102d85780638456cb59146102eb5780638da5cb5b146102f35780639010d07c1461030857806391d148541461031b57806395d89b411461032e578063a217fddf14610336578063a457c2d71461033e578063a9059cbb14610351578063ca15c87314610364578063d539139314610377578063d547741f1461038c578063dd62ed3e1461039f578063e63ab1e9146103b2578063f2fde38b146103c7575b600080fd5b61019b610196366004611999565b6103da565b60405190151581526020015b60405180910390f35b6101b8610408565b6040516101a791906119e7565b61019b6101d3366004611a36565b61049a565b60cb545b6040519081526020016101a7565b61019b6101f8366004611a60565b6104b2565b6101dc61020b366004611a9c565b6104d6565b61022361021e366004611ab5565b6104eb565b005b604051601281526020016101a7565b610223610242366004611ab5565b61050d565b61019b610255366004611a36565b610596565b6102236105d5565b610223610270366004611a36565b610659565b610223610283366004611a9c565b610771565b610223610296366004611b87565b61077e565b61012d5460ff1661019b565b6101dc6102b5366004611bea565b600160a060020a0316600090815260c9602052604090205490565b61022361086a565b6102236102e6366004611a36565b6108a6565b6102236108bb565b6102fb61093b565b6040516101a79190611c05565b6102fb610316366004611c19565b61094b565b61019b610329366004611ab5565b61096a565b6101b8610995565b6101dc600081565b61019b61034c366004611a36565b6109a4565b61019b61035f366004611a36565b610a3c565b6101dc610372366004611a9c565b610a4a565b6101dc600080516020611f9983398151915281565b61022361039a366004611ab5565b610a61565b6101dc6103ad366004611c3b565b610a7e565b6101dc600080516020611f7983398151915281565b6102236103d5366004611bea565b610aa9565b6000600160e060020a0319821660e060020a635a05180f021480610402575061040282610b4f565b92915050565b606060cc805461041790611c65565b80601f016020809104026020016040519081016040528092919081815260200182805461044390611c65565b80156104905780601f1061046557610100808354040283529160200191610490565b820191906000526020600020905b81548152906001019060200180831161047357829003601f168201915b5050505050905090565b6000336104a8818585610b8a565b5060019392505050565b6000336104c0858285610cba565b6104cb858585610d37565b506001949350505050565b60009081526065602052604090206001015490565b6104f4826104d6565b6104fe8133610f05565b6105088383610f6c565b505050565b600160a060020a03811633146105885760405160e560020a62461bcd02815260206004820152602f60248201527f416363657373436f6e74726f6c3a2063616e206f6e6c792072656e6f756e63656044820152608960020a6e103937b632b9903337b91039b2b6330260648201526084015b60405180910390fd5b6105928282610f8e565b5050565b33600081815260ca60209081526040808320600160a060020a03871684529091528120549091906104a890829086906105d0908790611cbd565b610b8a565b6105ed600080516020611f798339815191523361096a565b61064f5760405160e560020a62461bcd0281526020600482015260396024820152600080516020611f598339815191526044820152603860020a7876652070617573657220726f6c6520746f20756e706175736502606482015260840161057f565b610657610fb0565b565b610671600080516020611f998339815191523361096a565b6106d05760405160e560020a62461bcd0281526020600482015260366024820152600080516020611f598339815191526044820152605260020a751d99481b5a5b9d195c881c9bdb19481d1bc81b5a5b9d02606482015260840161057f565b6a7c13bc4b2c133c56000000816106e660cb5490565b6106f09190611cbd565b11156107675760405160e560020a62461bcd02815260206004820152603b60248201527f5175616e7469747920746f206265206d696e7465642063616e6e6f742062652060448201527f67726561746572207468616e20746865206d617820737570706c790000000000606482015260840161057f565b6105928282611045565b61077b3382611115565b50565b600054610100900460ff166107995760005460ff161561079d565b303b155b6108065760405160e560020a62461bcd02815260206004820152602e60248201527f496e697469616c697a61626c653a20636f6e747261637420697320616c7265616044820152609260020a6d191e481a5b9a5d1a585b1a5e995902606482015260840161057f565b600054610100900460ff16158015610828576000805461ffff19166101011790555b610832838361125d565b61083c8383611291565b6108446112d7565b61084c611301565b610854611333565b8015610508576000805461ff0019169055505050565b3361087361093b565b600160a060020a03161461089c5760405160e560020a62461bcd02815260040161057f90611cd0565b6106576000611365565b6108b1823383610cba565b6105928282611115565b6108d3600080516020611f798339815191523361096a565b6109335760405160e560020a62461bcd0281526020600482015260376024820152600080516020611f598339815191526044820152604860020a7676652070617573657220726f6c6520746f20706175736502606482015260840161057f565b6106576113b8565b6101c354600160a060020a031690565b6000828152609760205260408120610963908361143b565b9392505050565b6000918252606560209081526040808420600160a060020a0393909316845291905290205460ff1690565b606060cd805461041790611c65565b33600081815260ca60209081526040808320600160a060020a038716845290915281205490919083811015610a2f5760405160e560020a62461bcd02815260206004820152602560248201527f45524332303a2064656372656173656420616c6c6f77616e63652062656c6f77604482015260d860020a64207a65726f02606482015260840161057f565b6104cb8286868403610b8a565b6000336104a8818585610d37565b600081815260976020526040812061040290611447565b610a6a826104d6565b610a748133610f05565b6105088383610f8e565b600160a060020a03918216600090815260ca6020908152604080832093909416825291909152205490565b33610ab261093b565b600160a060020a031614610adb5760405160e560020a62461bcd02815260040161057f90611cd0565b600160a060020a038116610b465760405160e560020a62461bcd02815260206004820152602660248201527f4f776e61626c653a206e6577206f776e657220697320746865207a65726f2061604482015260d060020a6564647265737302606482015260840161057f565b61077b81611365565b6000600160e060020a0319821660e060020a637965db0b021480610402575060e060020a6301ffc9a702600160e060020a0319831614610402565b600160a060020a038316610bf25760405160e560020a62461bcd028152602060048201526024808201527f45524332303a20617070726f76652066726f6d20746865207a65726f20616464604482015260e060020a637265737302606482015260840161057f565b600160a060020a038216610c595760405160e560020a62461bcd02815260206004820152602260248201527f45524332303a20617070726f766520746f20746865207a65726f206164647265604482015260f060020a61737302606482015260840161057f565b600160a060020a03838116600081815260ca602090815260408083209487168084529482529182902085905590518481527f8c5be1e5ebec7d5bd14f71427d1e84f3dd0314c0f7b2291e5b200ac8c7c3b925910160405180910390a3505050565b6000610cc68484610a7e565b90506000198114610d315781811015610d245760405160e560020a62461bcd02815260206004820152601d60248201527f45524332303a20696e73756666696369656e7420616c6c6f77616e6365000000604482015260640161057f565b610d318484848403610b8a565b50505050565b600160a060020a038316610da15760405160e560020a62461bcd02815260206004820152602560248201527f45524332303a207472616e736665722066726f6d20746865207a65726f206164604482015260d860020a64647265737302606482015260840161057f565b600160a060020a038216610e095760405160e560020a62461bcd02815260206004820152602360248201527f45524332303a207472616e7366657220746f20746865207a65726f2061646472604482015260e860020a6265737302606482015260840161057f565b600160a060020a038316600090815260c9602052604090205481811015610e875760405160e560020a62461bcd02815260206004820152602660248201527f45524332303a207472616e7366657220616d6f756e7420657863656564732062604482015260d060020a65616c616e636502606482015260840161057f565b600160a060020a03808516600090815260c96020526040808220858503905591851681529081208054849290610ebe908490611cbd565b9250508190555082600160a060020a031684600160a060020a0316600080516020611fb983398151915284604051610ef891815260200190565b60405180910390a3610d31565b610f0f828261096a565b61059257610f2781600160a060020a03166014611451565b610f32836020611451565b604051602001610f43929190611d05565b60408051601f198184030181529082905260e560020a62461bcd02825261057f916004016119e7565b610f7682826115fa565b60008281526097602052604090206105089082611680565b610f988282611695565b600082815260976020526040902061050890826116fc565b61012d5460ff166110005760405160e560020a62461bcd0281526020600482015260146024820152606260020a7314185d5cd8589b194e881b9bdd081c185d5cd95902604482015260640161057f565b61012d805460ff191690557f5db9ee0a495bf2e6ff9c91a7834c1ba4fdd244a5e8aa4e537bd38aeae4b073aa335b60405161103b9190611c05565b60405180910390a1565b600160a060020a03821661109e5760405160e560020a62461bcd02815260206004820152601f60248201527f45524332303a206d696e7420746f20746865207a65726f206164647265737300604482015260640161057f565b8060cb60008282546110b09190611cbd565b9091555050600160a060020a038216600090815260c96020526040812080548392906110dd908490611cbd565b9091555050604051818152600160a060020a03831690600090600080516020611fb98339815191529060200160405180910390a35050565b600160a060020a03821661117b5760405160e560020a62461bcd02815260206004820152602160248201527f45524332303a206275726e2066726f6d20746865207a65726f20616464726573604482015260f860020a607302606482015260840161057f565b600160a060020a038216600090815260c96020526040902054818110156111f55760405160e560020a62461bcd02815260206004820152602260248201527f45524332303a206275726e20616d6f756e7420657863656564732062616c616e604482015260f060020a61636502606482015260840161057f565b600160a060020a038316600090815260c960205260408120838303905560cb8054849290611224908490611d7a565b9091555050604051828152600090600160a060020a03851690600080516020611fb98339815191529060200160405180910390a3505050565b600054610100900460ff166112875760405160e560020a62461bcd02815260040161057f90611d8d565b6105928282611711565b600054610100900460ff166112bb5760405160e560020a62461bcd02815260040161057f90611d8d565b6112c58282611711565b6112cd611754565b610592828261178b565b600054610100900460ff166106575760405160e560020a62461bcd02815260040161057f90611d8d565b600054610100900460ff1661132b5760405160e560020a62461bcd02815260040161057f90611d8d565b6106576117f0565b600054610100900460ff1661135d5760405160e560020a62461bcd02815260040161057f90611d8d565b610657611754565b6101c38054600160a060020a03838116600160a060020a0319831681179093556040519116919082907f8be0079c531659141344cd1fd0a4f28419497f9722a3daafe3b4186f6b6457e090600090a35050565b61012d5460ff16156114055760405160e560020a62461bcd0281526020600482015260106024820152608260020a6f14185d5cd8589b194e881c185d5cd95902604482015260640161057f565b61012d805460ff191660011790557f62e78cea01bee320cd4e420270b5ea74000d11b0c9f74754ebdbfc544b05a25861102e3390565b60006109638383611823565b6000610402825490565b60606000611460836002611ddb565b61146b906002611cbd565b6001604060020a0381111561148257611482611ae1565b6040519080825280601f01601f1916602001820160405280156114ac576020820181803683370190505b50905060fc60020a600302816000815181106114ca576114ca611dfa565b6020010190600160f860020a031916908160001a90535060fb60020a600f02816001815181106114fc576114fc611dfa565b6020010190600160f860020a031916908160001a9053506000611520846002611ddb565b61152b906001611cbd565b90505b60018111156115a857608160020a6f181899199a1a9b1b9c1cb0b131b232b30285600f166010811061156257611562611dfa565b1a60f860020a0282828151811061157b5761157b611dfa565b6020010190600160f860020a031916908160001a9053506010909404936115a181611e14565b905061152e565b5083156109635760405160e560020a62461bcd02815260206004820181905260248201527f537472696e67733a20686578206c656e67746820696e73756666696369656e74604482015260640161057f565b611604828261096a565b610592576000828152606560209081526040808320600160a060020a03851684529091529020805460ff1916600117905561163c3390565b600160a060020a031681600160a060020a0316837f2f8788117e7eff1d82e926ec794901d17c78024a50270940304540a733656f0d60405160405180910390a45050565b600061096383600160a060020a03841661184d565b61169f828261096a565b15610592576000828152606560209081526040808320600160a060020a0385168085529252808320805460ff1916905551339285917ff6391f5c32d9c69d2a47ea670b442974b53935d1edc7fd64eb21e047a839171b9190a45050565b600061096383600160a060020a03841661189c565b600054610100900460ff1661173b5760405160e560020a62461bcd02815260040161057f90611d8d565b60cc6117478382611e79565b5060cd6105088282611e79565b600054610100900460ff1661177e5760405160e560020a62461bcd02815260040161057f90611d8d565b61012d805460ff19169055565b600054610100900460ff166117b55760405160e560020a62461bcd02815260040161057f90611d8d565b6117c060003361198f565b6117d8600080516020611f998339815191523361198f565b610592600080516020611f798339815191523361198f565b600054610100900460ff1661181a5760405160e560020a62461bcd02815260040161057f90611d8d565b61065733611365565b600082600001828154811061183a5761183a611dfa565b9060005260206000200154905092915050565b600081815260018301602052604081205461189457508154600181810184556000848152602080822090930184905584548482528286019093526040902091909155610402565b506000610402565b600081815260018301602052604081205480156119855760006118c0600183611d7a565b85549091506000906118d490600190611d7a565b90508181146119395760008660000182815481106118f4576118f4611dfa565b906000526020600020015490508087600001848154811061191757611917611dfa565b6000918252602080832090910192909255918252600188019052604090208390555b855486908061194a5761194a611f3e565b600190038181906000526020600020016000905590558560010160008681526020019081526020016000206000905560019350505050610402565b6000915050610402565b6105928282610f6c565b6000602082840312156119ab57600080fd5b8135600160e060020a03198116811461096357600080fd5b60005b838110156119de5781810151838201526020016119c6565b50506000910152565b6020815260008251806020840152611a068160408501602087016119c3565b601f01601f19169190910160400192915050565b8035600160a060020a0381168114611a3157600080fd5b919050565b60008060408385031215611a4957600080fd5b611a5283611a1a565b946020939093013593505050565b600080600060608486031215611a7557600080fd5b611a7e84611a1a565b9250611a8c60208501611a1a565b9150604084013590509250925092565b600060208284031215611aae57600080fd5b5035919050565b60008060408385031215611ac857600080fd5b82359150611ad860208401611a1a565b90509250929050565b60e060020a634e487b710260009081526041600452602490fd5b600082601f830112611b0c57600080fd5b81356001604060020a0380821115611b2657611b26611ae1565b604051601f8301601f19908116603f01168101908282118183101715611b4e57611b4e611ae1565b81604052838152866020858801011115611b6757600080fd5b836020870160208301376000602085830101528094505050505092915050565b60008060408385031215611b9a57600080fd5b82356001604060020a0380821115611bb157600080fd5b611bbd86838701611afb565b93506020850135915080821115611bd357600080fd5b50611be085828601611afb565b9150509250929050565b600060208284031215611bfc57600080fd5b61096382611a1a565b600160a060020a0391909116815260200190565b60008060408385031215611c2c57600080fd5b50508035926020909101359150565b60008060408385031215611c4e57600080fd5b611c5783611a1a565b9150611ad860208401611a1a565b600281046001821680611c7957607f821691505b602082108103611c9d5760e060020a634e487b710260009081526022600452602490fd5b50919050565b60e060020a634e487b710260009081526011600452602490fd5b8082018082111561040257610402611ca3565b6020808252818101527f4f776e61626c653a2063616c6c6572206973206e6f7420746865206f776e6572604082015260600190565b604d60020a76020b1b1b2b9b9a1b7b73a3937b61d1030b1b1b7bab73a102815260008351611d3a8160178501602088016119c3565b607d60020a7001034b99036b4b9b9b4b733903937b6329026017918401918201528351611d6e8160288401602088016119c3565b01602801949350505050565b8181038181111561040257610402611ca3565b6020808252602b908201527f496e697469616c697a61626c653a20636f6e7472616374206973206e6f742069604082015260a860020a6a6e697469616c697a696e6702606082015260800190565b6000816000190483118215151615611df557611df5611ca3565b500290565b60e060020a634e487b710260009081526032600452602490fd5b600081611e2357611e23611ca3565b506000190190565b601f821115610508576000818152602081206020601f86010481016020861015611e525750805b6020601f860104820191505b81811015611e7157828155600101611e5e565b505050505050565b81516001604060020a03811115611e9257611e92611ae1565b611ea681611ea08454611c65565b84611e2b565b602080601f831160018114611edf5760008415611ec35750858301515b60028086026008870290910a6000190419821617865550611e71565b600085815260208120601f198616915b82811015611f0e57888601518255948401946001909101908401611eef565b5085821015611f2e57878501516008601f88160260020a60001904191681555b5050505050600202600101905550565b60e060020a634e487b710260009081526031600452602490fdfe45524332305072657365744d696e7465725061757365723a206d75737420686165d7a28e3265b37a6474929f336521b332c1681b933f6cb9f3376673440d862a9f2df0fed2c77648de5860a4cc508cd0818c85b8b8a1ab4ceeef8d981c8956a6ddf252ad1be2c89b69c2b068fc378daa952ba7f163c4a11628f55a4df523b3efa2646970667358221220c7a6c0be6f25b440f50c04314961c36aa62242cc4ad9fe6897916c4f0514bbbc64736f6c63430008100033",
  "immutableReferences": {},
  "source": "// SPDX-License-Identifier: MIT\r\npragma solidity ^0.8.9;\r\n\r\nimport \"@openzeppelin/contracts-upgradeable/token/ERC20/presets/ERC20PresetMinterPauserUpgradeable.sol\";\r\nimport \"@openzeppelin/contracts-upgradeable/access/OwnableUpgradeable.sol\";\r\n\r\ncontract ToyoGovernanceToken is ERC20PresetMinterPauserUpgradeable, OwnableUpgradeable\r\n{\r\n    function initialize(string memory _name, string memory _symbol) override public initializer {\r\n        __ERC20_init(_name, _symbol);\r\n        __ERC20PresetMinterPauser_init(_name, _symbol);\r\n        __AccessControl_init();\r\n        __Ownable_init();\r\n        __Pausable_init();\r\n    }\r\n\r\n    function mint(address to, uint256 amount) public virtual override(ERC20PresetMinterPauserUpgradeable) {\r\n        require(hasRole(MINTER_ROLE, _msgSender()), \"ERC20PresetMinterPauser: must have minter role to mint\");\r\n        require(((totalSupply() + amount) <= 150000000000000000000000000), \"Quantity to be minted cannot be greater than the max supply\");\r\n        _mint(to, amount);\r\n    }\r\n\r\n    function _beforeTokenTransfer(\r\n        address from,\r\n        address to,\r\n        uint256 amount\r\n    ) internal override(ERC20PresetMinterPauserUpgradeable) {\r\n    }\r\n}",
  "sourcePath": "D:\\Projects\\LUD\\Repos\\Toyoverse\\toyo-smartcontracts\\contracts\\tokens\\ERC20\\ToyoGovernanceToken.sol",
  "compiler": {
    "name": "solc",
    "version": "0.8.16+commit.07a7930e.Emscripten.clang"
  },
  "schemaVersion": "3.4.6",
  "updatedAt": "2022-09-23T01:31:54.870Z",
  "devdoc": {
    "kind": "dev",
    "methods": {
      "allowance(address,address)": {
        "details": "See {IERC20-allowance}."
      },
      "approve(address,uint256)": {
        "details": "See {IERC20-approve}. NOTE: If `amount` is the maximum `uint256`, the allowance is not updated on `transferFrom`. This is semantically equivalent to an infinite approval. Requirements: - `spender` cannot be the zero address."
      },
      "balanceOf(address)": {
        "details": "See {IERC20-balanceOf}."
      },
      "burn(uint256)": {
        "details": "Destroys `amount` tokens from the caller. See {ERC20-_burn}."
      },
      "burnFrom(address,uint256)": {
        "details": "Destroys `amount` tokens from `account`, deducting from the caller's allowance. See {ERC20-_burn} and {ERC20-allowance}. Requirements: - the caller must have allowance for ``accounts``'s tokens of at least `amount`."
      },
      "decimals()": {
        "details": "Returns the number of decimals used to get its user representation. For example, if `decimals` equals `2`, a balance of `505` tokens should be displayed to a user as `5.05` (`505 / 10 ** 2`). Tokens usually opt for a value of 18, imitating the relationship between Ether and Wei. This is the value {ERC20} uses, unless this function is overridden; NOTE: This information is only used for _display_ purposes: it in no way affects any of the arithmetic of the contract, including {IERC20-balanceOf} and {IERC20-transfer}."
      },
      "decreaseAllowance(address,uint256)": {
        "details": "Atomically decreases the allowance granted to `spender` by the caller. This is an alternative to {approve} that can be used as a mitigation for problems described in {IERC20-approve}. Emits an {Approval} event indicating the updated allowance. Requirements: - `spender` cannot be the zero address. - `spender` must have allowance for the caller of at least `subtractedValue`."
      },
      "getRoleAdmin(bytes32)": {
        "details": "Returns the admin role that controls `role`. See {grantRole} and {revokeRole}. To change a role's admin, use {_setRoleAdmin}."
      },
      "getRoleMember(bytes32,uint256)": {
        "details": "Returns one of the accounts that have `role`. `index` must be a value between 0 and {getRoleMemberCount}, non-inclusive. Role bearers are not sorted in any particular way, and their ordering may change at any point. WARNING: When using {getRoleMember} and {getRoleMemberCount}, make sure you perform all queries on the same block. See the following https://forum.openzeppelin.com/t/iterating-over-elements-on-enumerableset-in-openzeppelin-contracts/2296[forum post] for more information."
      },
      "getRoleMemberCount(bytes32)": {
        "details": "Returns the number of accounts that have `role`. Can be used together with {getRoleMember} to enumerate all bearers of a role."
      },
      "grantRole(bytes32,address)": {
        "details": "Grants `role` to `account`. If `account` had not been already granted `role`, emits a {RoleGranted} event. Requirements: - the caller must have ``role``'s admin role."
      },
      "hasRole(bytes32,address)": {
        "details": "Returns `true` if `account` has been granted `role`."
      },
      "increaseAllowance(address,uint256)": {
        "details": "Atomically increases the allowance granted to `spender` by the caller. This is an alternative to {approve} that can be used as a mitigation for problems described in {IERC20-approve}. Emits an {Approval} event indicating the updated allowance. Requirements: - `spender` cannot be the zero address."
      },
      "mint(address,uint256)": {
        "details": "Creates `amount` new tokens for `to`. See {ERC20-_mint}. Requirements: - the caller must have the `MINTER_ROLE`."
      },
      "name()": {
        "details": "Returns the name of the token."
      },
      "owner()": {
        "details": "Returns the address of the current owner."
      },
      "pause()": {
        "details": "Pauses all token transfers. See {ERC20Pausable} and {Pausable-_pause}. Requirements: - the caller must have the `PAUSER_ROLE`."
      },
      "paused()": {
        "details": "Returns true if the contract is paused, and false otherwise."
      },
      "renounceOwnership()": {
        "details": "Leaves the contract without owner. It will not be possible to call `onlyOwner` functions anymore. Can only be called by the current owner. NOTE: Renouncing ownership will leave the contract without an owner, thereby removing any functionality that is only available to the owner."
      },
      "renounceRole(bytes32,address)": {
        "details": "Revokes `role` from the calling account. Roles are often managed via {grantRole} and {revokeRole}: this function's purpose is to provide a mechanism for accounts to lose their privileges if they are compromised (such as when a trusted device is misplaced). If the calling account had been revoked `role`, emits a {RoleRevoked} event. Requirements: - the caller must be `account`."
      },
      "revokeRole(bytes32,address)": {
        "details": "Revokes `role` from `account`. If `account` had been granted `role`, emits a {RoleRevoked} event. Requirements: - the caller must have ``role``'s admin role."
      },
      "supportsInterface(bytes4)": {
        "details": "See {IERC165-supportsInterface}."
      },
      "symbol()": {
        "details": "Returns the symbol of the token, usually a shorter version of the name."
      },
      "totalSupply()": {
        "details": "See {IERC20-totalSupply}."
      },
      "transfer(address,uint256)": {
        "details": "See {IERC20-transfer}. Requirements: - `to` cannot be the zero address. - the caller must have a balance of at least `amount`."
      },
      "transferFrom(address,address,uint256)": {
        "details": "See {IERC20-transferFrom}. Emits an {Approval} event indicating the updated allowance. This is not required by the EIP. See the note at the beginning of {ERC20}. NOTE: Does not update the allowance if the current allowance is the maximum `uint256`. Requirements: - `from` and `to` cannot be the zero address. - `from` must have a balance of at least `amount`. - the caller must have allowance for ``from``'s tokens of at least `amount`."
      },
      "transferOwnership(address)": {
        "details": "Transfers ownership of the contract to a new account (`newOwner`). Can only be called by the current owner."
      },
      "unpause()": {
        "details": "Unpauses all token transfers. See {ERC20Pausable} and {Pausable-_unpause}. Requirements: - the caller must have the `PAUSER_ROLE`."
      }
    },
    "version": 1
  },
  "userdoc": {
    "kind": "user",
    "methods": {},
    "version": 1
  }
}